{
  "contractName": "MicroPay",
  "abi": [
    {
      "constant": false,
      "inputs": [
        {
          "name": "_v1",
          "type": "uint8"
        },
        {
          "name": "_r1",
          "type": "bytes32"
        },
        {
          "name": "_s1",
          "type": "bytes32"
        }
      ],
      "name": "unlockAccount",
      "outputs": [],
      "payable": false,
      "stateMutability": "nonpayable",
      "type": "function"
    },
    {
      "constant": true,
      "inputs": [],
      "name": "unlockDelay",
      "outputs": [
        {
          "name": "",
          "type": "uint256"
        }
      ],
      "payable": false,
      "stateMutability": "view",
      "type": "function"
    },
    {
      "constant": true,
      "inputs": [],
      "name": "minTopUp",
      "outputs": [
        {
          "name": "",
          "type": "uint256"
        }
      ],
      "payable": false,
      "stateMutability": "view",
      "type": "function"
    },
    {
      "constant": true,
      "inputs": [],
      "name": "minOverdraftFund",
      "outputs": [
        {
          "name": "",
          "type": "uint256"
        }
      ],
      "payable": false,
      "stateMutability": "view",
      "type": "function"
    },
    {
      "constant": true,
      "inputs": [],
      "name": "OCT",
      "outputs": [
        {
          "name": "",
          "type": "address"
        }
      ],
      "payable": false,
      "stateMutability": "view",
      "type": "function"
    },
    {
      "constant": true,
      "inputs": [
        {
          "name": "",
          "type": "address"
        }
      ],
      "name": "ticketFunds",
      "outputs": [
        {
          "name": "",
          "type": "uint256"
        }
      ],
      "payable": false,
      "stateMutability": "view",
      "type": "function"
    },
    {
      "constant": true,
      "inputs": [
        {
          "name": "addr",
          "type": "address"
        }
      ],
      "name": "isSolvent",
      "outputs": [
        {
          "name": "",
          "type": "bool"
        }
      ],
      "payable": false,
      "stateMutability": "view",
      "type": "function"
    },
    {
      "constant": true,
      "inputs": [
        {
          "name": "addr",
          "type": "address"
        }
      ],
      "name": "isLocked",
      "outputs": [
        {
          "name": "",
          "type": "bool"
        }
      ],
      "payable": false,
      "stateMutability": "view",
      "type": "function"
    },
    {
      "constant": true,
      "inputs": [
        {
          "name": "",
          "type": "address"
        }
      ],
      "name": "overdraftFunds",
      "outputs": [
        {
          "name": "",
          "type": "uint256"
        }
      ],
      "payable": false,
      "stateMutability": "view",
      "type": "function"
    },
    {
      "constant": false,
      "inputs": [
        {
          "name": "_rand",
          "type": "uint256"
        },
        {
          "name": "_randHash",
          "type": "bytes32"
        },
        {
          "name": "_nonce",
          "type": "uint256"
        },
        {
          "name": "_faceValue",
          "type": "uint256"
        },
        {
          "name": "_winProb",
          "type": "uint256"
        },
        {
          "name": "_recipient",
          "type": "address"
        },
        {
          "name": "_v1",
          "type": "uint8"
        },
        {
          "name": "_r1",
          "type": "bytes32"
        },
        {
          "name": "_s1",
          "type": "bytes32"
        },
        {
          "name": "_v2",
          "type": "uint8"
        },
        {
          "name": "_r2",
          "type": "bytes32"
        },
        {
          "name": "_s2",
          "type": "bytes32"
        }
      ],
      "name": "claimTicket",
      "outputs": [],
      "payable": false,
      "stateMutability": "nonpayable",
      "type": "function"
    },
    {
      "constant": true,
      "inputs": [
        {
          "name": "_rand",
          "type": "uint256"
        },
        {
          "name": "_randHash",
          "type": "bytes32"
        },
        {
          "name": "_nonce",
          "type": "uint256"
        },
        {
          "name": "_faceValue",
          "type": "uint256"
        },
        {
          "name": "_winProb",
          "type": "uint256"
        },
        {
          "name": "_recipient",
          "type": "address"
        },
        {
          "name": "_v1",
          "type": "uint8"
        },
        {
          "name": "_r1",
          "type": "bytes32"
        },
        {
          "name": "_s1",
          "type": "bytes32"
        },
        {
          "name": "_v2",
          "type": "uint8"
        },
        {
          "name": "_r2",
          "type": "bytes32"
        },
        {
          "name": "_s2",
          "type": "bytes32"
        }
      ],
      "name": "validateTicket",
      "outputs": [
        {
          "name": "",
          "type": "uint256"
        },
        {
          "name": "",
          "type": "address"
        }
      ],
      "payable": false,
      "stateMutability": "view",
      "type": "function"
    },
    {
      "constant": true,
      "inputs": [],
      "name": "minFirstFund",
      "outputs": [
        {
          "name": "",
          "type": "uint256"
        }
      ],
      "payable": false,
      "stateMutability": "view",
      "type": "function"
    },
    {
      "constant": true,
      "inputs": [
        {
          "name": "",
          "type": "address"
        }
      ],
      "name": "unlocking",
      "outputs": [
        {
          "name": "",
          "type": "uint256"
        }
      ],
      "payable": false,
      "stateMutability": "view",
      "type": "function"
    },
    {
      "constant": false,
      "inputs": [
        {
          "name": "_v1",
          "type": "uint8"
        },
        {
          "name": "_r1",
          "type": "bytes32"
        },
        {
          "name": "_s1",
          "type": "bytes32"
        }
      ],
      "name": "withdrawSenderFunds",
      "outputs": [],
      "payable": false,
      "stateMutability": "nonpayable",
      "type": "function"
    },
    {
      "constant": false,
      "inputs": [
        {
          "name": "_from",
          "type": "address"
        },
        {
          "name": "_oct",
          "type": "uint256"
        },
        {
          "name": "",
          "type": "bytes"
        }
      ],
      "name": "tokenFallback",
      "outputs": [],
      "payable": false,
      "stateMutability": "nonpayable",
      "type": "function"
    },
    {
      "constant": true,
      "inputs": [],
      "name": "unlockHash",
      "outputs": [
        {
          "name": "",
          "type": "bytes32"
        }
      ],
      "payable": false,
      "stateMutability": "view",
      "type": "function"
    },
    {
      "constant": true,
      "inputs": [],
      "name": "minTicketFund",
      "outputs": [
        {
          "name": "",
          "type": "uint256"
        }
      ],
      "payable": false,
      "stateMutability": "view",
      "type": "function"
    },
    {
      "constant": true,
      "inputs": [],
      "name": "withdrawHash",
      "outputs": [
        {
          "name": "",
          "type": "bytes32"
        }
      ],
      "payable": false,
      "stateMutability": "view",
      "type": "function"
    },
    {
      "inputs": [
        {
          "name": "_OCT",
          "type": "address"
        }
      ],
      "payable": false,
      "stateMutability": "nonpayable",
      "type": "constructor"
    },
    {
      "anonymous": false,
      "inputs": [
        {
          "indexed": true,
          "name": "creator",
          "type": "address"
        },
        {
          "indexed": false,
          "name": "funds",
          "type": "uint256"
        }
      ],
      "name": "Funded",
      "type": "event"
    },
    {
      "anonymous": false,
      "inputs": [
        {
          "indexed": true,
          "name": "creator",
          "type": "address"
        },
        {
          "indexed": false,
          "name": "funds",
          "type": "uint256"
        }
      ],
      "name": "FundsWithdrawn",
      "type": "event"
    },
    {
      "anonymous": false,
      "inputs": [
        {
          "indexed": true,
          "name": "creator",
          "type": "address"
        },
        {
          "indexed": false,
          "name": "time",
          "type": "uint256"
        }
      ],
      "name": "Unlocked",
      "type": "event"
    },
    {
      "anonymous": false,
      "inputs": [
        {
          "indexed": true,
          "name": "creator",
          "type": "address"
        },
        {
          "indexed": false,
          "name": "faceValue",
          "type": "uint256"
        },
        {
          "indexed": false,
          "name": "slash",
          "type": "uint256"
        }
      ],
      "name": "Slashed",
      "type": "event"
    },
    {
      "anonymous": false,
      "inputs": [
        {
          "indexed": true,
          "name": "creator",
          "type": "address"
        },
        {
          "indexed": true,
          "name": "recipient",
          "type": "address"
        },
        {
          "indexed": false,
          "name": "faceValue",
          "type": "uint256"
        }
      ],
      "name": "TicketClaimed",
      "type": "event"
    }
  ],
  "bytecode": "0x6060604052662386f26fc10000600455662386f26fc10000600555662386f26fc10000600655600654600554600454010160075562015180600855341561004557600080fd5b604051602080611cff83398101604052808051906020019091905050806000806101000a81548173ffffffffffffffffffffffffffffffffffffffff021916908373ffffffffffffffffffffffffffffffffffffffff16021790555050611c4e806100b16000396000f3006060604052600436106100fc576000357c0100000000000000000000000000000000000000000000000000000000900463ffffffff168063034381ca146101015780630519da3214610141578063067fb8b11461016a57806309b5144d1461019357806324ca2cd3146101bc5780633338c66e1461021157806338b51ce11461025e5780634a4fbeec146102af5780635b7ddc5f146103005780635c0de6b51461034d578063780c569d1461040357806383d1658a14610500578063885b692a1461052957806398cdaf9114610576578063c0ee0b8a146105b6578063de3432d81461063b578063ea0129ee1461066c578063f65f8cf714610695575b600080fd5b341561010c57600080fd5b61013f600480803560ff1690602001909190803560001916906020019091908035600019169060200190919050506106c6565b005b341561014c57600080fd5b6101546108e1565b6040518082815260200191505060405180910390f35b341561017557600080fd5b61017d6108e7565b6040518082815260200191505060405180910390f35b341561019e57600080fd5b6101a66108ed565b6040518082815260200191505060405180910390f35b34156101c757600080fd5b6101cf6108f3565b604051808273ffffffffffffffffffffffffffffffffffffffff1673ffffffffffffffffffffffffffffffffffffffff16815260200191505060405180910390f35b341561021c57600080fd5b610248600480803573ffffffffffffffffffffffffffffffffffffffff16906020019091905050610918565b6040518082815260200191505060405180910390f35b341561026957600080fd5b610295600480803573ffffffffffffffffffffffffffffffffffffffff16906020019091905050610930565b604051808215151515815260200191505060405180910390f35b34156102ba57600080fd5b6102e6600480803573ffffffffffffffffffffffffffffffffffffffff169060200190919050506109cb565b604051808215151515815260200191505060405180910390f35b341561030b57600080fd5b610337600480803573ffffffffffffffffffffffffffffffffffffffff16906020019091905050610a64565b6040518082815260200191505060405180910390f35b341561035857600080fd5b61040160048080359060200190919080356000191690602001909190803590602001909190803590602001909190803590602001909190803573ffffffffffffffffffffffffffffffffffffffff1690602001909190803560ff16906020019091908035600019169060200190919080356000191690602001909190803560ff169060200190919080356000191690602001909190803560001916906020019091905050610a7c565b005b341561040e57600080fd5b6104b760048080359060200190919080356000191690602001909190803590602001909190803590602001909190803590602001909190803573ffffffffffffffffffffffffffffffffffffffff1690602001909190803560ff16906020019091908035600019169060200190919080356000191690602001909190803560ff169060200190919080356000191690602001909190803560001916906020019091905050610b88565b604051808381526020018273ffffffffffffffffffffffffffffffffffffffff1673ffffffffffffffffffffffffffffffffffffffff1681526020019250505060405180910390f35b341561050b57600080fd5b610513610c9e565b6040518082815260200191505060405180910390f35b341561053457600080fd5b610560600480803573ffffffffffffffffffffffffffffffffffffffff16906020019091905050610ca4565b6040518082815260200191505060405180910390f35b341561058157600080fd5b6105b4600480803560ff169060200190919080356000191690602001909190803560001916906020019091905050610cbc565b005b34156105c157600080fd5b610639600480803573ffffffffffffffffffffffffffffffffffffffff1690602001909190803590602001909190803590602001908201803590602001908080601f01602080910402602001604051908101604052809392919081815260200183838082843782019150505050505091905050611071565b005b341561064657600080fd5b61064e611349565b60405180826000191660001916815260200191505060405180910390f35b341561067757600080fd5b61067f6113a8565b6040518082815260200191505060405180910390f35b34156106a057600080fd5b6106a86113ae565b60405180826000191660001916815260200191505060405180910390f35b6000600160405180807f546865204e6574207472656174732063656e736f72736869702061732061206481526020017f656665637420616e6420726f757465732061726f756e642069742e0000000000815250603b0190506040518091039020858585604051600081526020016040526000604051602001526040518085600019166000191681526020018460ff1660ff16815260200183600019166000191681526020018260001916600019168152602001945050505050602060405160208103908084039060008661646e5a03f115156107a157600080fd5b50506020604051035190506000600260008373ffffffffffffffffffffffffffffffffffffffff1673ffffffffffffffffffffffffffffffffffffffff16815260200190815260200160002054141515156107fb57600080fd5b6000600360008373ffffffffffffffffffffffffffffffffffffffff1673ffffffffffffffffffffffffffffffffffffffff1681526020019081526020016000205414151561084957600080fd5b42600360008373ffffffffffffffffffffffffffffffffffffffff1673ffffffffffffffffffffffffffffffffffffffff168152602001908152602001600020819055508073ffffffffffffffffffffffffffffffffffffffff167f0f0bc5b519ddefdd8e5f9e6423433aa2b869738de2ae34d58ebc796fc749fa0d426040518082815260200191505060405180910390a250505050565b60085481565b60065481565b60055481565b6000809054906101000a900473ffffffffffffffffffffffffffffffffffffffff1681565b60016020528060005260406000206000915090505481565b6000600454600160008473ffffffffffffffffffffffffffffffffffffffff1673ffffffffffffffffffffffffffffffffffffffff16815260200190815260200160002054101580156109c45750600554600260008473ffffffffffffffffffffffffffffffffffffffff1673ffffffffffffffffffffffffffffffffffffffff1681526020019081526020016000205410155b9050919050565b600080600360008473ffffffffffffffffffffffffffffffffffffffff1673ffffffffffffffffffffffffffffffffffffffff168152602001908152602001600020541480610a5d575042600854600360008573ffffffffffffffffffffffffffffffffffffffff1673ffffffffffffffffffffffffffffffffffffffff168152602001908152602001600020540110155b9050919050565b60026020528060005260406000206000915090505481565b610a84611b95565b8c8160000181815250508b816020019060001916908160001916815250508a8160400181815250508981606001818152505088816080018181525050878160a0019073ffffffffffffffffffffffffffffffffffffffff16908173ffffffffffffffffffffffffffffffffffffffff1681525050868160c0019060ff16908160ff1681525050858160e0019060001916908160001916815250508481610100019060001916908160001916815250508381610120019060ff16908160ff1681525050828161014001906000191690816000191681525050818161016001906000191690816000191681525050610b79816113e7565b50505050505050505050505050565b600080610b93611b95565b8e8160000181815250508d816020019060001916908160001916815250508c8160400181815250508b8160600181815250508a816080018181525050898160a0019073ffffffffffffffffffffffffffffffffffffffff16908173ffffffffffffffffffffffffffffffffffffffff1681525050888160c0019060ff16908160ff1681525050878160e0019060001916908160001916815250508681610100019060001916908160001916815250508581610120019060ff16908160ff1681525050848161014001906000191690816000191681525050838161016001906000191690816000191681525050610c888161184a565b92509250509c509c9a5050505050505050505050565b60075481565b60036020528060005260406000206000915090505481565b600080600160405180807f5375727665696c6c616e63652062726565647320636f6e666f726d6974790000815250601e0190506040518091039020868686604051600081526020016040526000604051602001526040518085600019166000191681526020018460ff1660ff16815260200183600019166000191681526020018260001916600019168152602001945050505050602060405160208103908084039060008661646e5a03f11515610d7257600080fd5b50506020604051035191506000600360008473ffffffffffffffffffffffffffffffffffffffff1673ffffffffffffffffffffffffffffffffffffffff1681526020019081526020016000205414151515610dcc57600080fd5b42600854600360008573ffffffffffffffffffffffffffffffffffffffff1673ffffffffffffffffffffffffffffffffffffffff1681526020019081526020016000205401101515610e1d57600080fd5b600260008373ffffffffffffffffffffffffffffffffffffffff1673ffffffffffffffffffffffffffffffffffffffff16815260200190815260200160002054600160008473ffffffffffffffffffffffffffffffffffffffff1673ffffffffffffffffffffffffffffffffffffffff168152602001908152602001600020540190506000600260008473ffffffffffffffffffffffffffffffffffffffff1673ffffffffffffffffffffffffffffffffffffffff168152602001908152602001600020819055506000600160008473ffffffffffffffffffffffffffffffffffffffff1673ffffffffffffffffffffffffffffffffffffffff168152602001908152602001600020819055506000809054906101000a900473ffffffffffffffffffffffffffffffffffffffff1673ffffffffffffffffffffffffffffffffffffffff1663a9059cbb83836000604051602001526040518363ffffffff167c0100000000000000000000000000000000000000000000000000000000028152600401808373ffffffffffffffffffffffffffffffffffffffff1673ffffffffffffffffffffffffffffffffffffffff16815260200182815260200192505050602060405180830381600087803b1515610ff657600080fd5b6102c65a03f1151561100757600080fd5b50505060405180519050151561101c57600080fd5b8173ffffffffffffffffffffffffffffffffffffffff167feaff4b37086828766ad3268786972c0cd24259d4c87a80f9d3963a3c3d999b0d826040518082815260200191505060405180910390a25050505050565b6000806000809054906101000a900473ffffffffffffffffffffffffffffffffffffffff1673ffffffffffffffffffffffffffffffffffffffff163373ffffffffffffffffffffffffffffffffffffffff161415156110cf57600080fd5b6000600360008773ffffffffffffffffffffffffffffffffffffffff1673ffffffffffffffffffffffffffffffffffffffff1681526020019081526020016000205414151561111d57600080fd5b6006549150600554600260008773ffffffffffffffffffffffffffffffffffffffff1673ffffffffffffffffffffffffffffffffffffffff1681526020019081526020016000205410156111b257600260008673ffffffffffffffffffffffffffffffffffffffff1673ffffffffffffffffffffffffffffffffffffffff168152602001908152602001600020546005540390505b8082019150600454600160008773ffffffffffffffffffffffffffffffffffffffff1673ffffffffffffffffffffffffffffffffffffffff16815260200190815260200160002054101561124957600160008673ffffffffffffffffffffffffffffffffffffffff1673ffffffffffffffffffffffffffffffffffffffff1681526020019081526020016000205460045403820191505b81841015151561125857600080fd5b808403600160008773ffffffffffffffffffffffffffffffffffffffff1673ffffffffffffffffffffffffffffffffffffffff1681526020019081526020016000206000828254019250508190555080600260008773ffffffffffffffffffffffffffffffffffffffff1673ffffffffffffffffffffffffffffffffffffffff168152602001908152602001600020600082825401925050819055508473ffffffffffffffffffffffffffffffffffffffff167f5af8184bef8e4b45eb9f6ed7734d04da38ced226495548f46e0c8ff8d7d9a524856040518082815260200191505060405180910390a25050505050565b60405180807f546865204e6574207472656174732063656e736f72736869702061732061206481526020017f656665637420616e6420726f757465732061726f756e642069742e0000000000815250603b019050604051809103902081565b60045481565b60405180807f5375727665696c6c616e63652062726565647320636f6e666f726d6974790000815250601e019050604051809103902081565b60008060006113f58461184a565b8093508194505050600280841614151561140e57600080fd5b600480841614151561141f57600080fd5b60088084161415156115e8578360600151600160008473ffffffffffffffffffffffffffffffffffffffff1673ffffffffffffffffffffffffffffffffffffffff168152602001908152602001600020600082825403925050819055506000809054906101000a900473ffffffffffffffffffffffffffffffffffffffff1673ffffffffffffffffffffffffffffffffffffffff1663a9059cbb8560a0015186606001516000604051602001526040518363ffffffff167c0100000000000000000000000000000000000000000000000000000000028152600401808373ffffffffffffffffffffffffffffffffffffffff1673ffffffffffffffffffffffffffffffffffffffff16815260200182815260200192505050602060405180830381600087803b151561155057600080fd5b6102c65a03f1151561156157600080fd5b50505060405180519050151561157657600080fd5b8360a0015173ffffffffffffffffffffffffffffffffffffffff168273ffffffffffffffffffffffffffffffffffffffff167fc80520f7a621370014880c38098214315099ec7ac86d849751181625426a21b386606001516040518082815260200191505060405180910390a3611844565b6000809054906101000a900473ffffffffffffffffffffffffffffffffffffffff1673ffffffffffffffffffffffffffffffffffffffff1663a9059cbb8560a00151600160008673ffffffffffffffffffffffffffffffffffffffff1673ffffffffffffffffffffffffffffffffffffffff168152602001908152602001600020546000604051602001526040518363ffffffff167c0100000000000000000000000000000000000000000000000000000000028152600401808373ffffffffffffffffffffffffffffffffffffffff1673ffffffffffffffffffffffffffffffffffffffff16815260200182815260200192505050602060405180830381600087803b15156116f757600080fd5b6102c65a03f1151561170857600080fd5b50505060405180519050151561171d57600080fd5b6000600160008473ffffffffffffffffffffffffffffffffffffffff1673ffffffffffffffffffffffffffffffffffffffff16815260200190815260200160002081905550600260008373ffffffffffffffffffffffffffffffffffffffff1673ffffffffffffffffffffffffffffffffffffffff1681526020019081526020016000205490506000600260008473ffffffffffffffffffffffffffffffffffffffff1673ffffffffffffffffffffffffffffffffffffffff168152602001908152602001600020819055508173ffffffffffffffffffffffffffffffffffffffff167f45a371af55b0726877a30f464edc14db5879ab096590bacce682cf6c18223596856060015183604051808381526020018281526020019250505060405180910390a25b50505050565b6000806000806000808660200151600019168760000151604051808281526020019150506040518091039020600019161415156118905783600080905095509550611b8c565b86602001518760a00151886060015189608001518a604001516040518086600019166000191681526020018573ffffffffffffffffffffffffffffffffffffffff1673ffffffffffffffffffffffffffffffffffffffff166c0100000000000000000000000002815260140184815260200183815260200182815260200195505050505050604051809103902092506001838860c001518960e001518a6101000151604051600081526020016040526000604051602001526040518085600019166000191681526020018460ff1660ff16815260200183600019166000191681526020018260001916600019168152602001945050505050602060405160208103908084039060008661646e5a03f115156119aa57600080fd5b50506020604051035191506001838861012001518961014001518a6101600151604051600081526020016040526000604051602001526040518085600019166000191681526020018460ff1660ff16815260200183600019166000191681526020018260001916600019168152602001945050505050602060405160208103908084039060008661646e5a03f11515611a4257600080fd5b50506020604051035190508660a0015173ffffffffffffffffffffffffffffffffffffffff168173ffffffffffffffffffffffffffffffffffffffff16141515611a955783600080905095509550611b8c565b6000600260008473ffffffffffffffffffffffffffffffffffffffff1673ffffffffffffffffffffffffffffffffffffffff168152602001908152602001600020541415611aec5783600080905095509550611b8c565b600284189350866080015183886000015160405180836000191660001916815260200182815260200192505050604051809103902060019004111515611b33576004841893505b8660600151600160008473ffffffffffffffffffffffffffffffffffffffff1673ffffffffffffffffffffffffffffffffffffffff168152602001908152602001600020541015611b85576008841893505b8382955095505b50505050915091565b610180604051908101604052806000815260200160008019168152602001600081526020016000815260200160008152602001600073ffffffffffffffffffffffffffffffffffffffff168152602001600060ff1681526020016000801916815260200160008019168152602001600060ff168152602001600080191681526020016000801916815250905600a165627a7a72305820a5ef44e3aec5b5077c797b13446d1a7335509df6ba35ac9115ea2704be5d0a8e0029",
  "source": "//pragma experimental \"v0.5.0\";\npragma solidity ^0.4.18;\n\nimport './zeppelin/token/ERC20.sol';\n\n/*\n   WARNING: THIS IS UNAUDITED PROTOTYPE CODE. DO NOT DEPLOY LIVE.\n   THIS CODE IS FOR TESTING PURPOSES ONLY AND NEEDS ADDITIONAL\n   WORK BEFORE SUITABLE FOR PRODUCTION SYSTEMS.\n\n   @title Orchid Payment Smart Contract\n   @author Gustav Simonsson <gustav@orchidprotocol.com>\n\n   This contract implements the Orchid Probablistic payment scheme as detailed\n   in section 7.12 of the Orchid whitepaper available at:\n   https://orchidprotocol.com/whitepaper.pdf\n\n*/\n\ncontract MicroPay {\n\n  struct TicketClaim {\n    uint rand;\n    bytes32 randHash;\n    uint nonce;\n    uint faceValue;\n    uint winProb;\n    address recipient;\n    uint8 v1; bytes32 r1; bytes32 s1;\n    uint8 v2; bytes32 r2; bytes32 s2;\n  }\n\n  ERC20 public OCT;\n\n  mapping(address => uint) public ticketFunds;\n  mapping(address => uint) public overdraftFunds;\n  mapping(address => uint) public unlocking;\n\n  uint public minTicketFund    = 1 ether / 100;\n  uint public minOverdraftFund = 1 ether / 100;\n  uint public minTopUp         = 1 ether / 100;\n  uint public minFirstFund = minTicketFund + minOverdraftFund + minTopUp;\n\n  uint public unlockDelay = 1 days;\n\n  bytes32 public constant unlockHash = keccak256(\"The Net treats censorship as a defect and routes around it.\");\n  bytes32 public constant withdrawHash = keccak256(\"Surveillance breeds conformity\");\n\n  event Funded        (address indexed creator, uint funds);\n  event FundsWithdrawn(address indexed creator, uint funds);\n  event Unlocked      (address indexed creator, uint time);\n  event Slashed       (address indexed creator, uint faceValue, uint slash);\n  event TicketClaimed (address indexed creator, address indexed recipient, uint faceValue);\n  //event Debug(bytes32 indexed ticketHash, address indexed addr1, address indexed addr2);\n\n  function MicroPay(address _OCT) public {\n    OCT = ERC20(_OCT);\n  }\n\n  // The MicroPay contract must verify that the caller sent it an exact amount of OCT.\n  // Since OCT is an ERC20 token it cannot be directly sent in a call like ETH.\n  // We solve this by having the caller calling the OCT Ledger `transferData`\n  // which calls this callback in the recipient.\n  function tokenFallback(address _from, uint _oct, bytes) public {\n    require(msg.sender == address(OCT));\n    require(unlocking[_from] == 0); // sender cannot reuse their account\n\n    uint minFund = minTopUp;\n    uint neededOverdraft;\n\n    if (overdraftFunds[_from] < minOverdraftFund) {\n      neededOverdraft = minOverdraftFund - overdraftFunds[_from];\n    }\n    minFund += neededOverdraft;\n\n    if (ticketFunds[_from] < minTicketFund) {\n      minFund += (minTicketFund - ticketFunds[_from]);\n    }\n\n    require(_oct >= minFund);\n\n    ticketFunds[_from] += (_oct - neededOverdraft);\n    overdraftFunds[_from] += neededOverdraft;\n\n    Funded(_from, _oct);\n  }\n\n  function claimTicket(uint _rand, bytes32 _randHash, uint _nonce, uint _faceValue, uint _winProb, address _recipient,\n\t\t       uint8 _v1, bytes32 _r1, bytes32 _s1, // signature over ticket struct by creator\n\t\t       uint8 _v2, bytes32 _r2, bytes32 _s2  // signature from recipient pubkey\n\t\t       ) public {\n\n    /* To get around solidity's low limit on number of local variables\n       (which counts function parameters) we pass the params on as a struct.\n       Note that we cannot do this in the public API functions\n       due to limitations in the Ethereum ABI encoding\n    */\n    TicketClaim memory t;\n    t.rand\t= _rand;\n    t.randHash\t= _randHash;\n    t.nonce\t= _nonce;\n    t.faceValue\t= _faceValue;\n    t.winProb\t= _winProb;\n    t.recipient\t= _recipient;\n\n    t.v1 = _v1;\n    t.r1 = _r1;\n    t.s1 = _s1;\n\n    t.v2 = _v2;\n    t.r2 = _r2;\n    t.s2 = _s2;\n\n    return doClaimTicket(t);\n  }\n\n  function doClaimTicket(TicketClaim t) internal {\n    uint res;\n    address creator;\n    (res, creator) = doValidateTicket(t);\n    require((res & 2) == 2); // valid\n    require((res & 4) == 4); // win\n\n    if ((res & 8) != 8) { // no slash\n      ticketFunds[creator] -= t.faceValue;\n      require(  OCT.transfer(t.recipient, t.faceValue));\n      TicketClaimed(creator, t.recipient, t.faceValue);\n      return;\n    }\n\n    // creator does not have enough funds, time to slash:\n    // first, send available funds to recipient (validated to be less than ticket face value)\n    require(OCT.transfer(t.recipient, ticketFunds[creator]));\n    ticketFunds[creator] = 0;\n    // TODO: consider sending recipient some of the reserve funds as incentive\n    //       to slash (but not enough to render slashing ineffective)\n\n    // burn reserve funds\n    uint slashAmount = overdraftFunds[creator];\n    overdraftFunds[creator] = 0;\n    // TODO: MicroPay contract now still has the sender's tokens, though\n    //       unaccounted - consider burning them in the ERC20 ledger too\n    Slashed(creator, t.faceValue, slashAmount);\n  }\n\n  function validateTicket(uint _rand,\n\t\t\t  bytes32 _randHash,\n\t\t\t  uint _nonce,\n\t\t\t  uint _faceValue,\n\t\t\t  uint _winProb,\n\t\t\t  address _recipient,\n\t\t\t  uint8 _v1, bytes32 _r1, bytes32 _s1, // signature over ticket struct by creator\n\t\t\t  uint8 _v2, bytes32 _r2, bytes32 _s2  // signature from recipient pubkey\n\t\t\t  ) public view returns (uint, address) { //(bool, bool, address) {\n\n    /* To get around solidity's low limit on number of local variables\n       (which counts function parameters) we pass the params on as a struct.\n       Note that we cannot use a struct as input parameter in public functions\n       due to limitations in the Ethereum ABI encoding\n\n       we also pass the validation result as a uint for this reason\n    */\n    TicketClaim memory t;\n    t.rand\t= _rand;\n    t.randHash\t= _randHash;\n    t.nonce\t= _nonce;\n    t.faceValue\t= _faceValue;\n    t.winProb\t= _winProb;\n    t.recipient\t= _recipient;\n\n    t.v1 = _v1;\n    t.r1 = _r1;\n    t.s1 = _s1;\n\n    t.v2 = _v2;\n    t.r2 = _r2;\n    t.s2 = _s2;\n\n    return doValidateTicket(t);\n  }\n\n  function doValidateTicket(TicketClaim t) internal view returns (uint, address) {\n    uint res;\n    // verify recipient's (claimed) random number and its hash\n    if (keccak256(t.rand) != t.randHash) {\n      return (res, 0);\n    }\n\n    bytes32 ticketHash = keccak256(t.randHash, t.recipient, t.faceValue, t.winProb, t.nonce);\n    address signer1 = ecrecover(ticketHash, t.v1, t.r1, t.s1);\n    address signer2 = ecrecover(ticketHash, t.v2, t.r2, t.s2);\n\n    //Debug(ticketHash, signer1, signer2);\n\n    // Verify recipient signature.  Fails on invalid signature or if\n    // ticketHash is not the message signed.\n    if (signer2 != t.recipient) {\n      return (res, 0);\n    }\n\n    // Verify ticket creator has reserve funds\n    if (overdraftFunds[signer1] == 0) {\n      return (res, 0);\n    }\n\n    // Now we know the ticket is valid though it may not be winning and may\n    // require slashing of ticket creator\n    res ^= 2; // valid\n\n    if (uint(keccak256(ticketHash, t.rand)) <= t.winProb) {\n      res ^= 4; // win\n    }\n\n    if (ticketFunds[signer1] < t.faceValue) {\n      res ^= 8; // slash\n    }\n\n    return (res, signer1);\n  }\n\n  // TODO: decide on decoupling of sender and account paying for tx fee;\n  //       see claimTicket\n  function unlockAccount(uint8 _v1, bytes32 _r1, bytes32 _s1) public {\n    address signer = ecrecover(unlockHash, _v1, _r1, _s1);\n    require(overdraftFunds[signer] != 0);\n    require(unlocking[signer] == 0);\n\n    unlocking[signer] = now;\n\n    Unlocked(signer, now);\n  }\n\n  function withdrawSenderFunds(uint8 _v1, bytes32 _r1, bytes32 _s1) public {\n    address signer = ecrecover(withdrawHash, _v1, _r1, _s1);\n    require(unlocking[signer] != 0);\n    require((unlocking[signer] + unlockDelay) < now);\n\n    uint funds = ticketFunds[signer] + overdraftFunds[signer];\n\n    overdraftFunds[signer] = 0;\n    ticketFunds[signer]    = 0;\n    require(OCT.transfer(signer, funds));\n    // unlocking[signer] is not cleared to avoid account reuse\n\n    FundsWithdrawn(signer, funds);\n  }\n\n  // Called locally by the ticket recipient when validating received tickets\n  function isLocked(address addr) public view returns (bool) {\n    return (unlocking[addr] == 0 || (unlocking[addr] + unlockDelay) >= now);\n  }\n\n  function isSolvent(address addr) public view returns (bool) {\n    return (ticketFunds[addr] >= minTicketFund &&\n\t    overdraftFunds[addr] >= minOverdraftFund);\n  }\n}\n",
  "sourcePath": "/home/gs/orchid/orchid-eth/contracts/MicroPay.sol",
  "compiler": {
    "name": "solc",
    "version": "0.4.18+commit.9cf6e910.Emscripten.clang"
  },
  "schemaVersion": "1.0.1",
  "updatedAt": "2017-11-17T06:21:43.446Z"
}